{
  "transactions": [
    {
      "hash": null,
      "transactionType": "CALL",
      "contractName": null,
      "contractAddress": "0x5c210ef41cd1a72de73bf76ec39637bb0d3d4bee",
      "function": "getSubscription(uint256)",
      "arguments": [
        "20346192829399054010304322648860074945400581324793334733630186083100003542963"
      ],
      "transaction": {
        "from": "0xf471539c814e59323cce676435067470565e38fa",
        "to": "0x5c210ef41cd1a72de73bf76ec39637bb0d3d4bee",
        "gas": "0x7469",
        "value": "0x0",
        "input": "0xdc311dd32cfb897bdbd9d84e66283592a47cddce6adbd037ea999eeca66cdba208a227b3",
        "nonce": "0xda",
        "chainId": "0x14a34"
      },
      "additionalContracts": [],
      "isFixedGasLimit": false
    },
    {
      "hash": null,
      "transactionType": "CALL",
      "contractName": null,
      "contractAddress": "0x5c210ef41cd1a72de73bf76ec39637bb0d3d4bee",
      "function": "getSubscription(uint64)",
      "arguments": [
        "11992201396756817843"
      ],
      "transaction": {
        "from": "0xf471539c814e59323cce676435067470565e38fa",
        "to": "0x5c210ef41cd1a72de73bf76ec39637bb0d3d4bee",
        "gas": "0x72db",
        "value": "0x0",
        "input": "0xa47c7696000000000000000000000000000000000000000000000000a66cdba208a227b3",
        "nonce": "0xdb",
        "chainId": "0x14a34"
      },
      "additionalContracts": [],
      "isFixedGasLimit": false
    }
  ],
  "receipts": [],
  "libraries": [],
  "pending": [],
  "returns": {},
  "timestamp": 1772536896,
  "chain": 84532,
  "commit": "e213882"
}