{
  "transactions": [
    {
      "hash": "0x17ba53b2fd0761121406ac7a0314d25e34547192ae3bc0a5a78c2a945adf2295",
      "transactionType": "CALL",
      "contractName": null,
      "contractAddress": "0x5c210ef41cd1a72de73bf76ec39637bb0d3d7bee",
      "function": "addConsumer(uint256,address)",
      "arguments": [
        "20346192829399054010304322648860074945400581324793334733630186083100003542963",
        "0xf154a79C8386DcCa2DbaF4EFde57807255e4a855"
      ],
      "transaction": {
        "from": "0xf471539c814e59323cce676435067470565e38fa",
        "to": "0x5c210ef41cd1a72de73bf76ec39637bb0d3d7bee",
        "gas": "0x1be9f",
        "value": "0x0",
        "input": "0xbec4c08c2cfb897bdbd9d84e66283592a47cddce6adbd037ea999eeca66cdba208a227b3000000000000000000000000f154a79c8386dcca2dbaf4efde57807255e4a855",
        "nonce": "0x117",
        "chainId": "0x14a34"
      },
      "additionalContracts": [],
      "isFixedGasLimit": false
    },
    {
      "hash": "0xd683b5ca33171fbf8a56628fae469d9b18e87e4c03af599829d51b498129edb0",
      "transactionType": "CALL",
      "contractName": null,
      "contractAddress": "0x5c210ef41cd1a72de73bf76ec39637bb0d3d7bee",
      "function": "addConsumer(uint256,address)",
      "arguments": [
        "20346192829399054010304322648860074945400581324793334733630186083100003542963",
        "0xD048ed589B5F567A78Fa3d0d818D7084dBDedCD1"
      ],
      "transaction": {
        "from": "0xf471539c814e59323cce676435067470565e38fa",
        "to": "0x5c210ef41cd1a72de73bf76ec39637bb0d3d7bee",
        "gas": "0x1be9f",
        "value": "0x0",
        "input": "0xbec4c08c2cfb897bdbd9d84e66283592a47cddce6adbd037ea999eeca66cdba208a227b3000000000000000000000000d048ed589b5f567a78fa3d0d818d7084dbdedcd1",
        "nonce": "0x118",
        "chainId": "0x14a34"
      },
      "additionalContracts": [],
      "isFixedGasLimit": false
    }
  ],
  "receipts": [
    {
      "status": "0x1",
      "cumulativeGasUsed": "0x4eedc1",
      "logs": [
        {
          "address": "0x5c210ef41cd1a72de73bf76ec39637bb0d3d7bee",
          "topics": [
            "0x1e980d04aa7648e205713e5e8ea3808672ac163d10936d36f91b2c88ac1575e1",
            "0x2cfb897bdbd9d84e66283592a47cddce6adbd037ea999eeca66cdba208a227b3"
          ],
          "data": "0x000000000000000000000000f154a79c8386dcca2dbaf4efde57807255e4a855",
          "blockHash": "0x0000000000000000000000000000000000000000000000000000000000000000",
          "blockNumber": "0x249b84b",
          "blockTimestamp": "0x69a6cf76",
          "transactionHash": "0x17ba53b2fd0761121406ac7a0314d25e34547192ae3bc0a5a78c2a945adf2295",
          "transactionIndex": "0x1b",
          "logIndex": "0x8c",
          "removed": false
        }
      ],
      "logsBloom": "0x00000000000000000000000000000080000000000000000000000008000000000000000000000000000000000000000000000000000000000000000000000000000000000000000000000000000000000000000000000001000000000000000080000000000000000000000000000000000000000000000000002000000000000000000000000000000000000000000000000004000000000000000000010000000000000000000000000000000000000000000000000000000000000000000000000000000000000000000000000000000000000000000000000000000000000000000000000000200000000000000000000000000000000000000000100000",
      "type": "0x2",
      "transactionHash": "0x17ba53b2fd0761121406ac7a0314d25e34547192ae3bc0a5a78c2a945adf2295",
      "transactionIndex": "0x1b",
      "blockHash": "0x0000000000000000000000000000000000000000000000000000000000000000",
      "blockNumber": "0x249b84b",
      "gasUsed": "0x13162",
      "effectiveGasPrice": "0x5b8d80",
      "blobGasUsed": "0x3a19",
      "from": "0xf471539c814e59323cce676435067470565e38fa",
      "to": "0x5c210ef41cd1a72de73bf76ec39637bb0d3d7bee",
      "contractAddress": null,
      "daFootprintGasScalar": "0x8b",
      "l1BaseFeeScalar": "0x44d",
      "l1BlobBaseFee": "0xe5",
      "l1BlobBaseFeeScalar": "0xa118b",
      "l1Fee": "0x9786",
      "l1GasPrice": "0x3482",
      "l1GasUsed": "0x6bf"
    },
    {
      "status": "0x1",
      "cumulativeGasUsed": "0x501f23",
      "logs": [
        {
          "address": "0x5c210ef41cd1a72de73bf76ec39637bb0d3d7bee",
          "topics": [
            "0x1e980d04aa7648e205713e5e8ea3808672ac163d10936d36f91b2c88ac1575e1",
            "0x2cfb897bdbd9d84e66283592a47cddce6adbd037ea999eeca66cdba208a227b3"
          ],
          "data": "0x000000000000000000000000d048ed589b5f567a78fa3d0d818d7084dbdedcd1",
          "blockHash": "0x0000000000000000000000000000000000000000000000000000000000000000",
          "blockNumber": "0x249b84b",
          "blockTimestamp": "0x69a6cf76",
          "transactionHash": "0xd683b5ca33171fbf8a56628fae469d9b18e87e4c03af599829d51b498129edb0",
          "transactionIndex": "0x1c",
          "logIndex": "0x8d",
          "removed": false
        }
      ],
      "logsBloom": "0x00000000000000000000000000000080000000000000000000000008000000000000000000000000000000000000000000000000000000000000000000000000000000000000000000000000000000000000000000000001000000000000000080000000000000000000000000000000000000000000000000002000000000000000000000000000000000000000000000000004000000000000000000010000000000000000000000000000000000000000000000000000000000000000000000000000000000000000000000000000000000000000000000000000000000000000000000000000200000000000000000000000000000000000000000100000",
      "type": "0x2",
      "transactionHash": "0xd683b5ca33171fbf8a56628fae469d9b18e87e4c03af599829d51b498129edb0",
      "transactionIndex": "0x1c",
      "blockHash": "0x0000000000000000000000000000000000000000000000000000000000000000",
      "blockNumber": "0x249b84b",
      "gasUsed": "0x13162",
      "effectiveGasPrice": "0x5b8d80",
      "blobGasUsed": "0x3a19",
      "from": "0xf471539c814e59323cce676435067470565e38fa",
      "to": "0x5c210ef41cd1a72de73bf76ec39637bb0d3d7bee",
      "contractAddress": null,
      "daFootprintGasScalar": "0x8b",
      "l1BaseFeeScalar": "0x44d",
      "l1BlobBaseFee": "0xe5",
      "l1BlobBaseFeeScalar": "0xa118b",
      "l1Fee": "0x9786",
      "l1GasPrice": "0x3482",
      "l1GasUsed": "0x6bf"
    }
  ],
  "libraries": [],
  "pending": [],
  "returns": {},
  "timestamp": 1772539765,
  "chain": 84532,
  "commit": "e213882"
}