{
  "transactions": [
    {
      "hash": "0x161ef1ca6985fcd590f683be9835bbb571feeeee082198a6154b70893294fad4",
      "transactionType": "CALL",
      "contractName": null,
      "contractAddress": "0x5c210ef41cd1a72de73bf76ec39637bb0d3d7bee",
      "function": "requestRandomWords((bytes32,uint256,uint16,uint32,uint32,bytes))",
      "arguments": [
        "(0x9e1344a1247c8a1785d0a4681a27152bffdb43666ae5bf7d14d24a5ef622bf3d, 20346192829399054010304322648860074945400581324793334733630186083100003542963, 3, 100000, 1, 0x92fd13380000000000000000000000000000000000000000000000000000000000000000)"
      ],
      "transaction": {
        "from": "0xf471539c814e59323cce676435067470565e38fa",
        "to": "0x5c210ef41cd1a72de73bf76ec39637bb0d3d7bee",
        "gas": "0x17387",
        "value": "0x0",
        "input": "0x9b1c385e00000000000000000000000000000000000000000000000000000000000000209e1344a1247c8a1785d0a4681a27152bffdb43666ae5bf7d14d24a5ef622bf3d2cfb897bdbd9d84e66283592a47cddce6adbd037ea999eeca66cdba208a227b3000000000000000000000000000000000000000000000000000000000000000300000000000000000000000000000000000000000000000000000000000186a0000000000000000000000000000000000000000000000000000000000000000100000000000000000000000000000000000000000000000000000000000000c0000000000000000000000000000000000000000000000000000000000000002492fd1338000000000000000000000000000000000000000000000000000000000000000000000000000000000000000000000000000000000000000000000000",
        "nonce": "0x13e",
        "chainId": "0x14a34"
      },
      "additionalContracts": [],
      "isFixedGasLimit": false
    }
  ],
  "receipts": [
    {
      "status": "0x1",
      "cumulativeGasUsed": "0xcd3edc",
      "logs": [
        {
          "address": "0x5c210ef41cd1a72de73bf76ec39637bb0d3d7bee",
          "topics": [
            "0xeb0e3652e0f44f417695e6e90f2f42c99b65cd7169074c5a654b16b9748c3a4e",
            "0x9e1344a1247c8a1785d0a4681a27152bffdb43666ae5bf7d14d24a5ef622bf3d",
            "0x2cfb897bdbd9d84e66283592a47cddce6adbd037ea999eeca66cdba208a227b3",
            "0x000000000000000000000000f471539c814e59323cce676435067470565e38fa"
          ],
          "data": "0x142d926a36797fc8ea5b9a481bc19f5832e4d2a2bbf2eaef6ac8f8a411eb077795f09292c8dc560db4e5a9e26b70c143d5932a6947a663ff7f810aaa8c007bdd000000000000000000000000000000000000000000000000000000000000000300000000000000000000000000000000000000000000000000000000000186a0000000000000000000000000000000000000000000000000000000000000000100000000000000000000000000000000000000000000000000000000000000c0000000000000000000000000000000000000000000000000000000000000002492fd1338000000000000000000000000000000000000000000000000000000000000000000000000000000000000000000000000000000000000000000000000",
          "blockHash": "0x0000000000000000000000000000000000000000000000000000000000000000",
          "blockNumber": "0x249c4ca",
          "blockTimestamp": "0x69a6e874",
          "transactionHash": "0x161ef1ca6985fcd590f683be9835bbb571feeeee082198a6154b70893294fad4",
          "transactionIndex": "0x1d",
          "logIndex": "0x136",
          "removed": false
        }
      ],
      "logsBloom": "0x00000000000000000000000000000000000000000000000000000008000000000200000000000000000000000040000000000000000000000000000000000000000000000000000000000000000000000000000000000000000000000000000080000000000000000000000000000000000000000000000000000000000000000008000000000800000000000000000000000004040000000000000000010000000000000000000000004000000000000000000000000000000000000000000000000000000000000000001000000000000000000000000000000000000000000000000000000000200000000000000000000000000000004000000000100001",
      "type": "0x2",
      "transactionHash": "0x161ef1ca6985fcd590f683be9835bbb571feeeee082198a6154b70893294fad4",
      "transactionIndex": "0x1d",
      "blockHash": "0x0000000000000000000000000000000000000000000000000000000000000000",
      "blockNumber": "0x249c4ca",
      "gasUsed": "0xfe0a",
      "effectiveGasPrice": "0x5b8d80",
      "blobGasUsed": "0x5655",
      "from": "0xf471539c814e59323cce676435067470565e38fa",
      "to": "0x5c210ef41cd1a72de73bf76ec39637bb0d3d7bee",
      "contractAddress": null,
      "daFootprintGasScalar": "0x8b",
      "l1BaseFeeScalar": "0x44d",
      "l1BlobBaseFee": "0xda5c845",
      "l1BlobBaseFeeScalar": "0xa118b",
      "l1Fee": "0x275f3360ac",
      "l1GasPrice": "0xd610af51",
      "l1GasUsed": "0x9fd"
    }
  ],
  "libraries": [],
  "pending": [],
  "returns": {},
  "timestamp": 1772546163,
  "chain": 84532,
  "commit": "e213882"
}