{
  "transactions": [
    {
      "hash": "0x06bcaadbf09b0bdfa4f569bf8dc0aaf85ddd6991bf4603a0f32f66feb3b01ea4",
      "transactionType": "CALL",
      "contractName": null,
      "contractAddress": "0x5c210ef41cd1a72de73bf76ec39637bb0d3d7bee",
      "function": "addConsumer(uint256,address)",
      "arguments": [
        "20346192829399054010304322648860074945400581324793334733630186083100003542963",
        "0xF471539C814E59323cCe676435067470565E38Fa"
      ],
      "transaction": {
        "from": "0xf471539c814e59323cce676435067470565e38fa",
        "to": "0x5c210ef41cd1a72de73bf76ec39637bb0d3d7bee",
        "gas": "0x1be9f",
        "value": "0x0",
        "input": "0xbec4c08c2cfb897bdbd9d84e66283592a47cddce6adbd037ea999eeca66cdba208a227b3000000000000000000000000f471539c814e59323cce676435067470565e38fa",
        "nonce": "0x13c",
        "chainId": "0x14a34"
      },
      "additionalContracts": [],
      "isFixedGasLimit": false
    }
  ],
  "receipts": [
    {
      "status": "0x1",
      "cumulativeGasUsed": "0xdb23a9",
      "logs": [
        {
          "address": "0x5c210ef41cd1a72de73bf76ec39637bb0d3d7bee",
          "topics": [
            "0x1e980d04aa7648e205713e5e8ea3808672ac163d10936d36f91b2c88ac1575e1",
            "0x2cfb897bdbd9d84e66283592a47cddce6adbd037ea999eeca66cdba208a227b3"
          ],
          "data": "0x000000000000000000000000f471539c814e59323cce676435067470565e38fa",
          "blockHash": "0x22a7fdd10e81f6b452fe74fe1b3a06c747dcde62bc65363b3a6621eabd82d8d2",
          "blockNumber": "0x249c220",
          "blockTimestamp": "0x69a6e320",
          "transactionHash": "0x06bcaadbf09b0bdfa4f569bf8dc0aaf85ddd6991bf4603a0f32f66feb3b01ea4",
          "transactionIndex": "0x1d",
          "logIndex": "0x185",
          "removed": false
        }
      ],
      "logsBloom": "0x00000000000000000000000000000080000000000000000000000008000000000000000000000000000000000000000000000000000000000000000000000000000000000000000000000000000000000000000000000001000000000000000080000000000000000000000000000000000000000000000000002000000000000000000000000000000000000000000000000004000000000000000000010000000000000000000000000000000000000000000000000000000000000000000000000000000000000000000000000000000000000000000000000000000000000000000000000000200000000000000000000000000000000000000000100000",
      "type": "0x2",
      "transactionHash": "0x06bcaadbf09b0bdfa4f569bf8dc0aaf85ddd6991bf4603a0f32f66feb3b01ea4",
      "transactionIndex": "0x1d",
      "blockHash": "0x22a7fdd10e81f6b452fe74fe1b3a06c747dcde62bc65363b3a6621eabd82d8d2",
      "blockNumber": "0x249c220",
      "gasUsed": "0x13162",
      "effectiveGasPrice": "0x5b8d80",
      "blobGasUsed": "0x3a19",
      "from": "0xf471539c814e59323cce676435067470565e38fa",
      "to": "0x5c210ef41cd1a72de73bf76ec39637bb0d3d7bee",
      "contractAddress": null,
      "daFootprintGasScalar": "0x8b",
      "l1BaseFeeScalar": "0x44d",
      "l1BlobBaseFee": "0x59add80",
      "l1BlobBaseFeeScalar": "0xa118b",
      "l1Fee": "0x39996fc73",
      "l1GasPrice": "0x11286945c",
      "l1GasUsed": "0x6bf"
    }
  ],
  "libraries": [],
  "pending": [],
  "returns": {},
  "timestamp": 1772544800,
  "chain": 84532,
  "commit": "e213882"
}