{
  "transactions": [
    {
      "hash": "0x2b2eea0d3acb3c8f283bd4baaca56a73eaea91b136eb55e5746e4b5ffeffde2d",
      "transactionType": "CALL",
      "contractName": null,
      "contractAddress": "0xb1a7d75451e22a92bd6d4ee6f0a61e7ff952d0c6",
      "function": "setMapDimensions(uint256,uint256)",
      "arguments": [
        "3600",
        "6048000"
      ],
      "transaction": {
        "from": "0xf471539c814e59323cce676435067470565e38fa",
        "to": "0xb1a7d75451e22a92bd6d4ee6f0a61e7ff952d0c6",
        "gas": "0xc103",
        "value": "0x0",
        "input": "0x5b2f9cc30000000000000000000000000000000000000000000000000000000000000e1000000000000000000000000000000000000000000000000000000000005c4900",
        "nonce": "0x14b",
        "chainId": "0x14a34"
      },
      "additionalContracts": [],
      "isFixedGasLimit": false
    },
    {
      "hash": "0x8f432d3600944c2b7dd1ecac18ae8b673711f3c30c8b19a90f21defbf196640f",
      "transactionType": "CALL",
      "contractName": null,
      "contractAddress": "0xb1a7d75451e22a92bd6d4ee6f0a61e7ff952d0c6",
      "function": "setMintIntervalBlocks(uint256)",
      "arguments": [
        "100000000000000000000"
      ],
      "transaction": {
        "from": "0xf471539c814e59323cce676435067470565e38fa",
        "to": "0xb1a7d75451e22a92bd6d4ee6f0a61e7ff952d0c6",
        "gas": "0x9b99",
        "value": "0x0",
        "input": "0xa516dda50000000000000000000000000000000000000000000000056bc75e2d63100000",
        "nonce": "0x14c",
        "chainId": "0x14a34"
      },
      "additionalContracts": [],
      "isFixedGasLimit": false
    },
    {
      "hash": "0x58e96ea6b0533f53e72e10c8e276f5906bfd56fa6b77797c2a444f3ef3c47849",
      "transactionType": "CALL",
      "contractName": null,
      "contractAddress": "0xb1a7d75451e22a92bd6d4ee6f0a61e7ff952d0c6",
      "function": "setMintAmount(uint256)",
      "arguments": [
        "10000"
      ],
      "transaction": {
        "from": "0xf471539c814e59323cce676435067470565e38fa",
        "to": "0xb1a7d75451e22a92bd6d4ee6f0a61e7ff952d0c6",
        "gas": "0x9b69",
        "value": "0x0",
        "input": "0xc7cd997f0000000000000000000000000000000000000000000000000000000000002710",
        "nonce": "0x14d",
        "chainId": "0x14a34"
      },
      "additionalContracts": [],
      "isFixedGasLimit": false
    },
    {
      "hash": "0xcc87162729a31638a8742d73ac1246a9b73d28ea0f7b59af1777e4a6e31f8752",
      "transactionType": "CALL",
      "contractName": null,
      "contractAddress": "0xb1a7d75451e22a92bd6d4ee6f0a61e7ff952d0c6",
      "function": "setStabilizationBlocks(uint256)",
      "arguments": [
        "10000"
      ],
      "transaction": {
        "from": "0xf471539c814e59323cce676435067470565e38fa",
        "to": "0xb1a7d75451e22a92bd6d4ee6f0a61e7ff952d0c6",
        "gas": "0x9a35",
        "value": "0x0",
        "input": "0x51aaa4770000000000000000000000000000000000000000000000000000000000002710",
        "nonce": "0x14e",
        "chainId": "0x14a34"
      },
      "additionalContracts": [],
      "isFixedGasLimit": false
    },
    {
      "hash": "0x8eba106dfd50bd63d94b07457cdbf1a7b69a80d8bb60598485ba9cafba02cfed",
      "transactionType": "CALL",
      "contractName": null,
      "contractAddress": "0xb1a7d75451e22a92bd6d4ee6f0a61e7ff952d0c6",
      "function": "setCraftDurationBlocks(uint256)",
      "arguments": [
        "50000000000000000000"
      ],
      "transaction": {
        "from": "0xf471539c814e59323cce676435067470565e38fa",
        "to": "0xb1a7d75451e22a92bd6d4ee6f0a61e7ff952d0c6",
        "gas": "0xa37e",
        "value": "0x0",
        "input": "0x3a266efb000000000000000000000000000000000000000000000002b5e3af16b1880000",
        "nonce": "0x14f",
        "chainId": "0x14a34"
      },
      "additionalContracts": [],
      "isFixedGasLimit": false
    },
    {
      "hash": "0x9e140a0421643e1c1c401b5b1f5b8f52587302836105da7337a83b977791de66",
      "transactionType": "CALL",
      "contractName": null,
      "contractAddress": "0xb1a7d75451e22a92bd6d4ee6f0a61e7ff952d0c6",
      "function": "setHalvingIntervalBlocks(uint256)",
      "arguments": [
        "100"
      ],
      "transaction": {
        "from": "0xf471539c814e59323cce676435067470565e38fa",
        "to": "0xb1a7d75451e22a92bd6d4ee6f0a61e7ff952d0c6",
        "gas": "0xa3b6",
        "value": "0x0",
        "input": "0x8c27639e0000000000000000000000000000000000000000000000000000000000000064",
        "nonce": "0x150",
        "chainId": "0x14a34"
      },
      "additionalContracts": [],
      "isFixedGasLimit": false
    },
    {
      "hash": "0xcf1053df238057b02186373989ae58bc87b979b20832c08feb3fe7e3ac8ff957",
      "transactionType": "CALL",
      "contractName": null,
      "contractAddress": "0xb1a7d75451e22a92bd6d4ee6f0a61e7ff952d0c6",
      "function": "setLandPrice(uint256)",
      "arguments": [
        "4000"
      ],
      "transaction": {
        "from": "0xf471539c814e59323cce676435067470565e38fa",
        "to": "0xb1a7d75451e22a92bd6d4ee6f0a61e7ff952d0c6",
        "gas": "0xa2e6",
        "value": "0x0",
        "input": "0x022565f10000000000000000000000000000000000000000000000000000000000000fa0",
        "nonce": "0x151",
        "chainId": "0x14a34"
      },
      "additionalContracts": [],
      "isFixedGasLimit": false
    },
    {
      "hash": "0x1ec48e4081bf0d926abacb2df523c20b05e39c977ca5b61371fbed3da00457de",
      "transactionType": "CALL",
      "contractName": null,
      "contractAddress": "0xa3f7914cf830a7d1888ef67796f58289d2158ecd",
      "function": "setResourcePoint(uint256,uint256,uint256,uint256)",
      "arguments": [
        "1000",
        "1",
        "3000",
        "4000"
      ],
      "transaction": {
        "from": "0xf471539c814e59323cce676435067470565e38fa",
        "to": "0xa3f7914cf830a7d1888ef67796f58289d2158ecd",
        "gas": "0x24db7",
        "value": "0x0",
        "input": "0x6b0cbef800000000000000000000000000000000000000000000000000000000000003e800000000000000000000000000000000000000000000000000000000000000010000000000000000000000000000000000000000000000000000000000000bb80000000000000000000000000000000000000000000000000000000000000fa0",
        "nonce": "0x152",
        "chainId": "0x14a34"
      },
      "additionalContracts": [],
      "isFixedGasLimit": false
    },
    {
      "hash": "0xe51ee505141c2e3d7db9dda5ada947d02d79c8d67ea2addb60a61727020c5e9d",
      "transactionType": "CALL",
      "contractName": null,
      "contractAddress": "0xa3f7914cf830a7d1888ef67796f58289d2158ecd",
      "function": "setResourcePoint(uint256,uint256,uint256,uint256)",
      "arguments": [
        "800",
        "2",
        "8000",
        "8000"
      ],
      "transaction": {
        "from": "0xf471539c814e59323cce676435067470565e38fa",
        "to": "0xa3f7914cf830a7d1888ef67796f58289d2158ecd",
        "gas": "0x24db7",
        "value": "0x0",
        "input": "0x6b0cbef8000000000000000000000000000000000000000000000000000000000000032000000000000000000000000000000000000000000000000000000000000000020000000000000000000000000000000000000000000000000000000000001f400000000000000000000000000000000000000000000000000000000000001f40",
        "nonce": "0x153",
        "chainId": "0x14a34"
      },
      "additionalContracts": [],
      "isFixedGasLimit": false
    },
    {
      "hash": "0x1d6efbffcbcee542390558b1753d0829fc078d3c67e2f3ed5d4009c577ba430c",
      "transactionType": "CALL",
      "contractName": null,
      "contractAddress": "0xa3f7914cf830a7d1888ef67796f58289d2158ecd",
      "function": "setResourcePoint(uint256,uint256,uint256,uint256)",
      "arguments": [
        "900",
        "3",
        "1000",
        "9000"
      ],
      "transaction": {
        "from": "0xf471539c814e59323cce676435067470565e38fa",
        "to": "0xa3f7914cf830a7d1888ef67796f58289d2158ecd",
        "gas": "0x24db7",
        "value": "0x0",
        "input": "0x6b0cbef80000000000000000000000000000000000000000000000000000000000000384000000000000000000000000000000000000000000000000000000000000000300000000000000000000000000000000000000000000000000000000000003e80000000000000000000000000000000000000000000000000000000000002328",
        "nonce": "0x154",
        "chainId": "0x14a34"
      },
      "additionalContracts": [],
      "isFixedGasLimit": false
    },
    {
      "hash": "0xd647342bfb23f56ac661d596ce49888725ec9dd815fe44a590743993f05fa7a6",
      "transactionType": "CALL",
      "contractName": null,
      "contractAddress": "0xa3f7914cf830a7d1888ef67796f58289d2158ecd",
      "function": "setSkillBlocks(uint256,uint256)",
      "arguments": [
        "100",
        "1"
      ],
      "transaction": {
        "from": "0xf471539c814e59323cce676435067470565e38fa",
        "to": "0xa3f7914cf830a7d1888ef67796f58289d2158ecd",
        "gas": "0x112a3",
        "value": "0x0",
        "input": "0x2943757b00000000000000000000000000000000000000000000000000000000000000640000000000000000000000000000000000000000000000000000000000000001",
        "nonce": "0x155",
        "chainId": "0x14a34"
      },
      "additionalContracts": [],
      "isFixedGasLimit": false
    },
    {
      "hash": "0xaa1535eae90104c6738f90548b70fe12698d6b3b74479d3fb34b2dbe6e21375f",
      "transactionType": "CALL",
      "contractName": null,
      "contractAddress": "0xa3f7914cf830a7d1888ef67796f58289d2158ecd",
      "function": "setSkillBlocks(uint256,uint256)",
      "arguments": [
        "100",
        "2"
      ],
      "transaction": {
        "from": "0xf471539c814e59323cce676435067470565e38fa",
        "to": "0xa3f7914cf830a7d1888ef67796f58289d2158ecd",
        "gas": "0xc11b",
        "value": "0x0",
        "input": "0x2943757b00000000000000000000000000000000000000000000000000000000000000640000000000000000000000000000000000000000000000000000000000000002",
        "nonce": "0x156",
        "chainId": "0x14a34"
      },
      "additionalContracts": [],
      "isFixedGasLimit": false
    },
    {
      "hash": "0xed694e3bc01be89a5874b4d64314757d988d4c9facab7367250a6f11843df1cc",
      "transactionType": "CALL",
      "contractName": null,
      "contractAddress": "0xa3f7914cf830a7d1888ef67796f58289d2158ecd",
      "function": "setSkillBlocks(uint256,uint256)",
      "arguments": [
        "100",
        "3"
      ],
      "transaction": {
        "from": "0xf471539c814e59323cce676435067470565e38fa",
        "to": "0xa3f7914cf830a7d1888ef67796f58289d2158ecd",
        "gas": "0xc11b",
        "value": "0x0",
        "input": "0x2943757b00000000000000000000000000000000000000000000000000000000000000640000000000000000000000000000000000000000000000000000000000000003",
        "nonce": "0x157",
        "chainId": "0x14a34"
      },
      "additionalContracts": [],
      "isFixedGasLimit": false
    },
    {
      "hash": "0x652d071c8fabc5a25b2425d84ff586ca79f30311387b413ac19ff54334c33123",
      "transactionType": "CALL",
      "contractName": null,
      "contractAddress": "0xa3f7914cf830a7d1888ef67796f58289d2158ecd",
      "function": "setNPC(uint256,uint256,uint256,uint256)",
      "arguments": [
        "1",
        "1",
        "50",
        "50"
      ],
      "transaction": {
        "from": "0xf471539c814e59323cce676435067470565e38fa",
        "to": "0xa3f7914cf830a7d1888ef67796f58289d2158ecd",
        "gas": "0x202ec",
        "value": "0x0",
        "input": "0x0cab5b8d0000000000000000000000000000000000000000000000000000000000000001000000000000000000000000000000000000000000000000000000000000000100000000000000000000000000000000000000000000000000000000000000320000000000000000000000000000000000000000000000000000000000000032",
        "nonce": "0x158",
        "chainId": "0x14a34"
      },
      "additionalContracts": [],
      "isFixedGasLimit": false
    },
    {
      "hash": "0x32610e17b9fd4fcc3fc89d1406e81122e9c964d8028e003de54125a4885ff677",
      "transactionType": "CALL",
      "contractName": null,
      "contractAddress": "0xa3f7914cf830a7d1888ef67796f58289d2158ecd",
      "function": "setNPC(uint256,uint256,uint256,uint256)",
      "arguments": [
        "2",
        "2",
        "60",
        "50"
      ],
      "transaction": {
        "from": "0xf471539c814e59323cce676435067470565e38fa",
        "to": "0xa3f7914cf830a7d1888ef67796f58289d2158ecd",
        "gas": "0x202ec",
        "value": "0x0",
        "input": "0x0cab5b8d00000000000000000000000000000000000000000000000000000000000000020000000000000000000000000000000000000000000000000000000000000002000000000000000000000000000000000000000000000000000000000000003c0000000000000000000000000000000000000000000000000000000000000032",
        "nonce": "0x159",
        "chainId": "0x14a34"
      },
      "additionalContracts": [],
      "isFixedGasLimit": false
    },
    {
      "hash": "0x6365d468c4bead9d8860d9d1111679ab6e2f5cd76c7b53f615cf26e1102f8dbd",
      "transactionType": "CALL",
      "contractName": null,
      "contractAddress": "0xa3f7914cf830a7d1888ef67796f58289d2158ecd",
      "function": "setNPC(uint256,uint256,uint256,uint256)",
      "arguments": [
        "3",
        "3",
        "70",
        "50"
      ],
      "transaction": {
        "from": "0xf471539c814e59323cce676435067470565e38fa",
        "to": "0xa3f7914cf830a7d1888ef67796f58289d2158ecd",
        "gas": "0x202ec",
        "value": "0x0",
        "input": "0x0cab5b8d0000000000000000000000000000000000000000000000000000000000000003000000000000000000000000000000000000000000000000000000000000000300000000000000000000000000000000000000000000000000000000000000460000000000000000000000000000000000000000000000000000000000000032",
        "nonce": "0x15a",
        "chainId": "0x14a34"
      },
      "additionalContracts": [],
      "isFixedGasLimit": false
    },
    {
      "hash": "0x2410b38bbdc28352357039ee2961e4e3b0593634866139b4916534d28c5f6cd6",
      "transactionType": "CALL",
      "contractName": null,
      "contractAddress": "0xa3f7914cf830a7d1888ef67796f58289d2158ecd",
      "function": "setRecipe(uint256,uint256[],uint256[],uint256,uint256,uint256)",
      "arguments": [
        "1",
        "[1, 2]",
        "[10, 5]",
        "1",
        "300",
        "1001"
      ],
      "transaction": {
        "from": "0xf471539c814e59323cce676435067470565e38fa",
        "to": "0xa3f7914cf830a7d1888ef67796f58289d2158ecd",
        "gas": "0x529d6",
        "value": "0x0",
        "input": "0xf4d2121f000000000000000000000000000000000000000000000000000000000000000100000000000000000000000000000000000000000000000000000000000000c000000000000000000000000000000000000000000000000000000000000001200000000000000000000000000000000000000000000000000000000000000001000000000000000000000000000000000000000000000000000000000000012c00000000000000000000000000000000000000000000000000000000000003e90000000000000000000000000000000000000000000000000000000000000002000000000000000000000000000000000000000000000000000000000000000100000000000000000000000000000000000000000000000000000000000000020000000000000000000000000000000000000000000000000000000000000002000000000000000000000000000000000000000000000000000000000000000a0000000000000000000000000000000000000000000000000000000000000005",
        "nonce": "0x15b",
        "chainId": "0x14a34"
      },
      "additionalContracts": [],
      "isFixedGasLimit": false
    },
    {
      "hash": "0x5a52d86c0b4ede14ed3cc87b4a353b2ca34b3931ba4f8bb2424b82b6d1d2e992",
      "transactionType": "CALL",
      "contractName": null,
      "contractAddress": "0xa3f7914cf830a7d1888ef67796f58289d2158ecd",
      "function": "setRecipe(uint256,uint256[],uint256[],uint256,uint256,uint256)",
      "arguments": [
        "2",
        "[2, 3]",
        "[12, 6]",
        "2",
        "500",
        "1002"
      ],
      "transaction": {
        "from": "0xf471539c814e59323cce676435067470565e38fa",
        "to": "0xa3f7914cf830a7d1888ef67796f58289d2158ecd",
        "gas": "0x529d6",
        "value": "0x0",
        "input": "0xf4d2121f000000000000000000000000000000000000000000000000000000000000000200000000000000000000000000000000000000000000000000000000000000c00000000000000000000000000000000000000000000000000000000000000120000000000000000000000000000000000000000000000000000000000000000200000000000000000000000000000000000000000000000000000000000001f400000000000000000000000000000000000000000000000000000000000003ea0000000000000000000000000000000000000000000000000000000000000002000000000000000000000000000000000000000000000000000000000000000200000000000000000000000000000000000000000000000000000000000000030000000000000000000000000000000000000000000000000000000000000002000000000000000000000000000000000000000000000000000000000000000c0000000000000000000000000000000000000000000000000000000000000006",
        "nonce": "0x15c",
        "chainId": "0x14a34"
      },
      "additionalContracts": [],
      "isFixedGasLimit": false
    },
    {
      "hash": "0xd3b3b555cc3be18d794e1225945cbd9b2fedd7772e81a7f777d911a21fca3086",
      "transactionType": "CALL",
      "contractName": null,
      "contractAddress": "0xa3f7914cf830a7d1888ef67796f58289d2158ecd",
      "function": "setEquipmentConfig(uint256,uint256,int256,int256,int256,int256,int256)",
      "arguments": [
        "2",
        "0",
        "1001",
        "10",
        "0",
        "1",
        "1"
      ],
      "transaction": {
        "from": "0xf471539c814e59323cce676435067470565e38fa",
        "to": "0xa3f7914cf830a7d1888ef67796f58289d2158ecd",
        "gas": "0x295bb",
        "value": "0x0",
        "input": "0x7308956e0000000000000000000000000000000000000000000000000000000000000002000000000000000000000000000000000000000000000000000000000000000000000000000000000000000000000000000000000000000000000000000003e9000000000000000000000000000000000000000000000000000000000000000a000000000000000000000000000000000000000000000000000000000000000000000000000000000000000000000000000000000000000000000000000000010000000000000000000000000000000000000000000000000000000000000001",
        "nonce": "0x15d",
        "chainId": "0x14a34"
      },
      "additionalContracts": [],
      "isFixedGasLimit": false
    },
    {
      "hash": "0x384df5171fb11d8cbe071f46ef6ba2dda473b52a4790933e34533803d08f7fad",
      "transactionType": "CALL",
      "contractName": null,
      "contractAddress": "0xa3f7914cf830a7d1888ef67796f58289d2158ecd",
      "function": "setEquipmentConfig(uint256,uint256,int256,int256,int256,int256,int256)",
      "arguments": [
        "3",
        "1",
        "1002",
        "20",
        "1",
        "2",
        "0"
      ],
      "transaction": {
        "from": "0xf471539c814e59323cce676435067470565e38fa",
        "to": "0xa3f7914cf830a7d1888ef67796f58289d2158ecd",
        "gas": "0x30129",
        "value": "0x0",
        "input": "0x7308956e0000000000000000000000000000000000000000000000000000000000000003000000000000000000000000000000000000000000000000000000000000000100000000000000000000000000000000000000000000000000000000000003ea0000000000000000000000000000000000000000000000000000000000000014000000000000000000000000000000000000000000000000000000000000000100000000000000000000000000000000000000000000000000000000000000020000000000000000000000000000000000000000000000000000000000000000",
        "nonce": "0x15e",
        "chainId": "0x14a34"
      },
      "additionalContracts": [],
      "isFixedGasLimit": false
    }
  ],
  "receipts": [
    {
      "status": "0x1",
      "cumulativeGasUsed": "0x71c4fe",
      "logs": [],
      "logsBloom": "0x00000000000000000000000000000000000000000000000000000000000000000000000000000000000000000000000000000000000000000000000000000000000000000000000000000000000000000000000000000000000000000000000000000000000000000000000000000000000000000000000000000000000000000000000000000000000000000000000000000000000000000000000000000000000000000000000000000000000000000000000000000000000000000000000000000000000000000000000000000000000000000000000000000000000000000000000000000000000000000000000000000000000000000000000000000000",
      "type": "0x2",
      "transactionHash": "0x2b2eea0d3acb3c8f283bd4baaca56a73eaea91b136eb55e5746e4b5ffeffde2d",
      "transactionIndex": "0x28",
      "blockHash": "0xd802e03c8df6f977510070771d63179b27174d9aeac8f8771f42a53c08f6b2bf",
      "blockNumber": "0x24a2dec",
      "gasUsed": "0x83fa",
      "effectiveGasPrice": "0x5b8d80",
      "blobGasUsed": "0x364c",
      "from": "0xf471539c814e59323cce676435067470565e38fa",
      "to": "0xb1a7d75451e22a92bd6d4ee6f0a61e7ff952d0c6",
      "contractAddress": null,
      "daFootprintGasScalar": "0x8b",
      "l1BaseFeeScalar": "0x44d",
      "l1BlobBaseFee": "0x1",
      "l1BlobBaseFeeScalar": "0xa118b",
      "l1Fee": "0x53",
      "l1GasPrice": "0xa",
      "l1GasUsed": "0x640"
    },
    {
      "status": "0x1",
      "cumulativeGasUsed": "0x7235a5",
      "logs": [],
      "logsBloom": "0x00000000000000000000000000000000000000000000000000000000000000000000000000000000000000000000000000000000000000000000000000000000000000000000000000000000000000000000000000000000000000000000000000000000000000000000000000000000000000000000000000000000000000000000000000000000000000000000000000000000000000000000000000000000000000000000000000000000000000000000000000000000000000000000000000000000000000000000000000000000000000000000000000000000000000000000000000000000000000000000000000000000000000000000000000000000",
      "type": "0x2",
      "transactionHash": "0x8f432d3600944c2b7dd1ecac18ae8b673711f3c30c8b19a90f21defbf196640f",
      "transactionIndex": "0x29",
      "blockHash": "0xd802e03c8df6f977510070771d63179b27174d9aeac8f8771f42a53c08f6b2bf",
      "blockNumber": "0x24a2dec",
      "gasUsed": "0x70a7",
      "effectiveGasPrice": "0x5b8d80",
      "blobGasUsed": "0x364c",
      "from": "0xf471539c814e59323cce676435067470565e38fa",
      "to": "0xb1a7d75451e22a92bd6d4ee6f0a61e7ff952d0c6",
      "contractAddress": null,
      "daFootprintGasScalar": "0x8b",
      "l1BaseFeeScalar": "0x44d",
      "l1BlobBaseFee": "0x1",
      "l1BlobBaseFeeScalar": "0xa118b",
      "l1Fee": "0x53",
      "l1GasPrice": "0xa",
      "l1GasUsed": "0x640"
    },
    {
      "status": "0x1",
      "cumulativeGasUsed": "0x739a82",
      "logs": [],
      "logsBloom": "0x00000000000000000000000000000000000000000000000000000000000000000000000000000000000000000000000000000000000000000000000000000000000000000000000000000000000000000000000000000000000000000000000000000000000000000000000000000000000000000000000000000000000000000000000000000000000000000000000000000000000000000000000000000000000000000000000000000000000000000000000000000000000000000000000000000000000000000000000000000000000000000000000000000000000000000000000000000000000000000000000000000000000000000000000000000000",
      "type": "0x2",
      "transactionHash": "0x58e96ea6b0533f53e72e10c8e276f5906bfd56fa6b77797c2a444f3ef3c47849",
      "transactionIndex": "0x2c",
      "blockHash": "0xd802e03c8df6f977510070771d63179b27174d9aeac8f8771f42a53c08f6b2bf",
      "blockNumber": "0x24a2dec",
      "gasUsed": "0x7084",
      "effectiveGasPrice": "0x5b8d80",
      "blobGasUsed": "0x364c",
      "from": "0xf471539c814e59323cce676435067470565e38fa",
      "to": "0xb1a7d75451e22a92bd6d4ee6f0a61e7ff952d0c6",
      "contractAddress": null,
      "daFootprintGasScalar": "0x8b",
      "l1BaseFeeScalar": "0x44d",
      "l1BlobBaseFee": "0x1",
      "l1BlobBaseFeeScalar": "0xa118b",
      "l1Fee": "0x53",
      "l1GasPrice": "0xa",
      "l1GasUsed": "0x640"
    },
    {
      "status": "0x1",
      "cumulativeGasUsed": "0x740a27",
      "logs": [],
      "logsBloom": "0x00000000000000000000000000000000000000000000000000000000000000000000000000000000000000000000000000000000000000000000000000000000000000000000000000000000000000000000000000000000000000000000000000000000000000000000000000000000000000000000000000000000000000000000000000000000000000000000000000000000000000000000000000000000000000000000000000000000000000000000000000000000000000000000000000000000000000000000000000000000000000000000000000000000000000000000000000000000000000000000000000000000000000000000000000000000",
      "type": "0x2",
      "transactionHash": "0xcc87162729a31638a8742d73ac1246a9b73d28ea0f7b59af1777e4a6e31f8752",
      "transactionIndex": "0x2d",
      "blockHash": "0xd802e03c8df6f977510070771d63179b27174d9aeac8f8771f42a53c08f6b2bf",
      "blockNumber": "0x24a2dec",
      "gasUsed": "0x6fa5",
      "effectiveGasPrice": "0x5b8d80",
      "blobGasUsed": "0x364c",
      "from": "0xf471539c814e59323cce676435067470565e38fa",
      "to": "0xb1a7d75451e22a92bd6d4ee6f0a61e7ff952d0c6",
      "contractAddress": null,
      "daFootprintGasScalar": "0x8b",
      "l1BaseFeeScalar": "0x44d",
      "l1BlobBaseFee": "0x1",
      "l1BlobBaseFeeScalar": "0xa118b",
      "l1Fee": "0x53",
      "l1GasPrice": "0xa",
      "l1GasUsed": "0x640"
    },
    {
      "status": "0x1",
      "cumulativeGasUsed": "0x7479f2",
      "logs": [],
      "logsBloom": "0x00000000000000000000000000000000000000000000000000000000000000000000000000000000000000000000000000000000000000000000000000000000000000000000000000000000000000000000000000000000000000000000000000000000000000000000000000000000000000000000000000000000000000000000000000000000000000000000000000000000000000000000000000000000000000000000000000000000000000000000000000000000000000000000000000000000000000000000000000000000000000000000000000000000000000000000000000000000000000000000000000000000000000000000000000000000",
      "type": "0x2",
      "transactionHash": "0x8eba106dfd50bd63d94b07457cdbf1a7b69a80d8bb60598485ba9cafba02cfed",
      "transactionIndex": "0x2e",
      "blockHash": "0xd802e03c8df6f977510070771d63179b27174d9aeac8f8771f42a53c08f6b2bf",
      "blockNumber": "0x24a2dec",
      "gasUsed": "0x6fcb",
      "effectiveGasPrice": "0x5b8d80",
      "blobGasUsed": "0x364c",
      "from": "0xf471539c814e59323cce676435067470565e38fa",
      "to": "0xb1a7d75451e22a92bd6d4ee6f0a61e7ff952d0c6",
      "contractAddress": null,
      "daFootprintGasScalar": "0x8b",
      "l1BaseFeeScalar": "0x44d",
      "l1BlobBaseFee": "0x1",
      "l1BlobBaseFeeScalar": "0xa118b",
      "l1Fee": "0x53",
      "l1GasPrice": "0xa",
      "l1GasUsed": "0x640"
    },
    {
      "status": "0x1",
      "cumulativeGasUsed": "0x74e9e3",
      "logs": [],
      "logsBloom": "0x00000000000000000000000000000000000000000000000000000000000000000000000000000000000000000000000000000000000000000000000000000000000000000000000000000000000000000000000000000000000000000000000000000000000000000000000000000000000000000000000000000000000000000000000000000000000000000000000000000000000000000000000000000000000000000000000000000000000000000000000000000000000000000000000000000000000000000000000000000000000000000000000000000000000000000000000000000000000000000000000000000000000000000000000000000000",
      "type": "0x2",
      "transactionHash": "0x9e140a0421643e1c1c401b5b1f5b8f52587302836105da7337a83b977791de66",
      "transactionIndex": "0x2f",
      "blockHash": "0xd802e03c8df6f977510070771d63179b27174d9aeac8f8771f42a53c08f6b2bf",
      "blockNumber": "0x24a2dec",
      "gasUsed": "0x6ff1",
      "effectiveGasPrice": "0x5b8d80",
      "blobGasUsed": "0x364c",
      "from": "0xf471539c814e59323cce676435067470565e38fa",
      "to": "0xb1a7d75451e22a92bd6d4ee6f0a61e7ff952d0c6",
      "contractAddress": null,
      "daFootprintGasScalar": "0x8b",
      "l1BaseFeeScalar": "0x44d",
      "l1BlobBaseFee": "0x1",
      "l1BlobBaseFeeScalar": "0xa118b",
      "l1Fee": "0x53",
      "l1GasPrice": "0xa",
      "l1GasUsed": "0x640"
    },
    {
      "status": "0x1",
      "cumulativeGasUsed": "0x755946",
      "logs": [],
      "logsBloom": "0x00000000000000000000000000000000000000000000000000000000000000000000000000000000000000000000000000000000000000000000000000000000000000000000000000000000000000000000000000000000000000000000000000000000000000000000000000000000000000000000000000000000000000000000000000000000000000000000000000000000000000000000000000000000000000000000000000000000000000000000000000000000000000000000000000000000000000000000000000000000000000000000000000000000000000000000000000000000000000000000000000000000000000000000000000000000",
      "type": "0x2",
      "transactionHash": "0xcf1053df238057b02186373989ae58bc87b979b20832c08feb3fe7e3ac8ff957",
      "transactionIndex": "0x30",
      "blockHash": "0xd802e03c8df6f977510070771d63179b27174d9aeac8f8771f42a53c08f6b2bf",
      "blockNumber": "0x24a2dec",
      "gasUsed": "0x6f63",
      "effectiveGasPrice": "0x5b8d80",
      "blobGasUsed": "0x364c",
      "from": "0xf471539c814e59323cce676435067470565e38fa",
      "to": "0xb1a7d75451e22a92bd6d4ee6f0a61e7ff952d0c6",
      "contractAddress": null,
      "daFootprintGasScalar": "0x8b",
      "l1BaseFeeScalar": "0x44d",
      "l1BlobBaseFee": "0x1",
      "l1BlobBaseFeeScalar": "0xa118b",
      "l1Fee": "0x53",
      "l1GasPrice": "0xa",
      "l1GasUsed": "0x640"
    },
    {
      "status": "0x1",
      "cumulativeGasUsed": "0x77683d",
      "logs": [],
      "logsBloom": "0x00000000000000000000000000000000000000000000000000000000000000000000000000000000000000000000000000000000000000000000000000000000000000000000000000000000000000000000000000000000000000000000000000000000000000000000000000000000000000000000000000000000000000000000000000000000000000000000000000000000000000000000000000000000000000000000000000000000000000000000000000000000000000000000000000000000000000000000000000000000000000000000000000000000000000000000000000000000000000000000000000000000000000000000000000000000",
      "type": "0x2",
      "transactionHash": "0x1ec48e4081bf0d926abacb2df523c20b05e39c977ca5b61371fbed3da00457de",
      "transactionIndex": "0x32",
      "blockHash": "0xd802e03c8df6f977510070771d63179b27174d9aeac8f8771f42a53c08f6b2bf",
      "blockNumber": "0x24a2dec",
      "gasUsed": "0x1933a",
      "effectiveGasPrice": "0x5b8d80",
      "blobGasUsed": "0x364c",
      "from": "0xf471539c814e59323cce676435067470565e38fa",
      "to": "0xa3f7914cf830a7d1888ef67796f58289d2158ecd",
      "contractAddress": null,
      "daFootprintGasScalar": "0x8b",
      "l1BaseFeeScalar": "0x44d",
      "l1BlobBaseFee": "0x1",
      "l1BlobBaseFeeScalar": "0xa118b",
      "l1Fee": "0x53",
      "l1GasPrice": "0xa",
      "l1GasUsed": "0x640"
    },
    {
      "status": "0x1",
      "cumulativeGasUsed": "0x78fb77",
      "logs": [],
      "logsBloom": "0x00000000000000000000000000000000000000000000000000000000000000000000000000000000000000000000000000000000000000000000000000000000000000000000000000000000000000000000000000000000000000000000000000000000000000000000000000000000000000000000000000000000000000000000000000000000000000000000000000000000000000000000000000000000000000000000000000000000000000000000000000000000000000000000000000000000000000000000000000000000000000000000000000000000000000000000000000000000000000000000000000000000000000000000000000000000",
      "type": "0x2",
      "transactionHash": "0xe51ee505141c2e3d7db9dda5ada947d02d79c8d67ea2addb60a61727020c5e9d",
      "transactionIndex": "0x33",
      "blockHash": "0xd802e03c8df6f977510070771d63179b27174d9aeac8f8771f42a53c08f6b2bf",
      "blockNumber": "0x24a2dec",
      "gasUsed": "0x1933a",
      "effectiveGasPrice": "0x5b8d80",
      "blobGasUsed": "0x364c",
      "from": "0xf471539c814e59323cce676435067470565e38fa",
      "to": "0xa3f7914cf830a7d1888ef67796f58289d2158ecd",
      "contractAddress": null,
      "daFootprintGasScalar": "0x8b",
      "l1BaseFeeScalar": "0x44d",
      "l1BlobBaseFee": "0x1",
      "l1BlobBaseFeeScalar": "0xa118b",
      "l1Fee": "0x53",
      "l1GasPrice": "0xa",
      "l1GasUsed": "0x640"
    },
    {
      "status": "0x1",
      "cumulativeGasUsed": "0x7a8eb1",
      "logs": [],
      "logsBloom": "0x00000000000000000000000000000000000000000000000000000000000000000000000000000000000000000000000000000000000000000000000000000000000000000000000000000000000000000000000000000000000000000000000000000000000000000000000000000000000000000000000000000000000000000000000000000000000000000000000000000000000000000000000000000000000000000000000000000000000000000000000000000000000000000000000000000000000000000000000000000000000000000000000000000000000000000000000000000000000000000000000000000000000000000000000000000000",
      "type": "0x2",
      "transactionHash": "0x1d6efbffcbcee542390558b1753d0829fc078d3c67e2f3ed5d4009c577ba430c",
      "transactionIndex": "0x34",
      "blockHash": "0xd802e03c8df6f977510070771d63179b27174d9aeac8f8771f42a53c08f6b2bf",
      "blockNumber": "0x24a2dec",
      "gasUsed": "0x1933a",
      "effectiveGasPrice": "0x5b8d80",
      "blobGasUsed": "0x364c",
      "from": "0xf471539c814e59323cce676435067470565e38fa",
      "to": "0xa3f7914cf830a7d1888ef67796f58289d2158ecd",
      "contractAddress": null,
      "daFootprintGasScalar": "0x8b",
      "l1BaseFeeScalar": "0x44d",
      "l1BlobBaseFee": "0x1",
      "l1BlobBaseFeeScalar": "0xa118b",
      "l1Fee": "0x53",
      "l1GasPrice": "0xa",
      "l1GasUsed": "0x640"
    },
    {
      "status": "0x1",
      "cumulativeGasUsed": "0x7b5587",
      "logs": [],
      "logsBloom": "0x00000000000000000000000000000000000000000000000000000000000000000000000000000000000000000000000000000000000000000000000000000000000000000000000000000000000000000000000000000000000000000000000000000000000000000000000000000000000000000000000000000000000000000000000000000000000000000000000000000000000000000000000000000000000000000000000000000000000000000000000000000000000000000000000000000000000000000000000000000000000000000000000000000000000000000000000000000000000000000000000000000000000000000000000000000000",
      "type": "0x2",
      "transactionHash": "0xd647342bfb23f56ac661d596ce49888725ec9dd815fe44a590743993f05fa7a6",
      "transactionIndex": "0x35",
      "blockHash": "0xd802e03c8df6f977510070771d63179b27174d9aeac8f8771f42a53c08f6b2bf",
      "blockNumber": "0x24a2dec",
      "gasUsed": "0xc6d6",
      "effectiveGasPrice": "0x5b8d80",
      "blobGasUsed": "0x364c",
      "from": "0xf471539c814e59323cce676435067470565e38fa",
      "to": "0xa3f7914cf830a7d1888ef67796f58289d2158ecd",
      "contractAddress": null,
      "daFootprintGasScalar": "0x8b",
      "l1BaseFeeScalar": "0x44d",
      "l1BlobBaseFee": "0x1",
      "l1BlobBaseFeeScalar": "0xa118b",
      "l1Fee": "0x53",
      "l1GasPrice": "0xa",
      "l1GasUsed": "0x640"
    },
    {
      "status": "0x1",
      "cumulativeGasUsed": "0xeabd3",
      "logs": [],
      "logsBloom": "0x00000000000000000000000000000000000000000000000000000000000000000000000000000000000000000000000000000000000000000000000000000000000000000000000000000000000000000000000000000000000000000000000000000000000000000000000000000000000000000000000000000000000000000000000000000000000000000000000000000000000000000000000000000000000000000000000000000000000000000000000000000000000000000000000000000000000000000000000000000000000000000000000000000000000000000000000000000000000000000000000000000000000000000000000000000000",
      "type": "0x2",
      "transactionHash": "0xaa1535eae90104c6738f90548b70fe12698d6b3b74479d3fb34b2dbe6e21375f",
      "transactionIndex": "0x7",
      "blockHash": "0x0000000000000000000000000000000000000000000000000000000000000000",
      "blockNumber": "0x24a2ded",
      "gasUsed": "0x840a",
      "effectiveGasPrice": "0x5b8d80",
      "blobGasUsed": "0x364c",
      "from": "0xf471539c814e59323cce676435067470565e38fa",
      "to": "0xa3f7914cf830a7d1888ef67796f58289d2158ecd",
      "contractAddress": null,
      "daFootprintGasScalar": "0x8b",
      "l1BaseFeeScalar": "0x44d",
      "l1BlobBaseFee": "0x1",
      "l1BlobBaseFeeScalar": "0xa118b",
      "l1Fee": "0x7e",
      "l1GasPrice": "0xa",
      "l1GasUsed": "0x640"
    },
    {
      "status": "0x1",
      "cumulativeGasUsed": "0xf2fdd",
      "logs": [],
      "logsBloom": "0x00000000000000000000000000000000000000000000000000000000000000000000000000000000000000000000000000000000000000000000000000000000000000000000000000000000000000000000000000000000000000000000000000000000000000000000000000000000000000000000000000000000000000000000000000000000000000000000000000000000000000000000000000000000000000000000000000000000000000000000000000000000000000000000000000000000000000000000000000000000000000000000000000000000000000000000000000000000000000000000000000000000000000000000000000000000",
      "type": "0x2",
      "transactionHash": "0xed694e3bc01be89a5874b4d64314757d988d4c9facab7367250a6f11843df1cc",
      "transactionIndex": "0x8",
      "blockHash": "0x0000000000000000000000000000000000000000000000000000000000000000",
      "blockNumber": "0x24a2ded",
      "gasUsed": "0x840a",
      "effectiveGasPrice": "0x5b8d80",
      "blobGasUsed": "0x364c",
      "from": "0xf471539c814e59323cce676435067470565e38fa",
      "to": "0xa3f7914cf830a7d1888ef67796f58289d2158ecd",
      "contractAddress": null,
      "daFootprintGasScalar": "0x8b",
      "l1BaseFeeScalar": "0x44d",
      "l1BlobBaseFee": "0x1",
      "l1BlobBaseFeeScalar": "0xa118b",
      "l1Fee": "0x7e",
      "l1GasPrice": "0xa",
      "l1GasUsed": "0x640"
    },
    {
      "status": "0x1",
      "cumulativeGasUsed": "0x10a4a9",
      "logs": [],
      "logsBloom": "0x00000000000000000000000000000000000000000000000000000000000000000000000000000000000000000000000000000000000000000000000000000000000000000000000000000000000000000000000000000000000000000000000000000000000000000000000000000000000000000000000000000000000000000000000000000000000000000000000000000000000000000000000000000000000000000000000000000000000000000000000000000000000000000000000000000000000000000000000000000000000000000000000000000000000000000000000000000000000000000000000000000000000000000000000000000000",
      "type": "0x2",
      "transactionHash": "0x652d071c8fabc5a25b2425d84ff586ca79f30311387b413ac19ff54334c33123",
      "transactionIndex": "0x9",
      "blockHash": "0x0000000000000000000000000000000000000000000000000000000000000000",
      "blockNumber": "0x24a2ded",
      "gasUsed": "0x174cc",
      "effectiveGasPrice": "0x5b8d80",
      "blobGasUsed": "0x364c",
      "from": "0xf471539c814e59323cce676435067470565e38fa",
      "to": "0xa3f7914cf830a7d1888ef67796f58289d2158ecd",
      "contractAddress": null,
      "daFootprintGasScalar": "0x8b",
      "l1BaseFeeScalar": "0x44d",
      "l1BlobBaseFee": "0x1",
      "l1BlobBaseFeeScalar": "0xa118b",
      "l1Fee": "0x7e",
      "l1GasPrice": "0xa",
      "l1GasUsed": "0x640"
    },
    {
      "status": "0x1",
      "cumulativeGasUsed": "0x121975",
      "logs": [],
      "logsBloom": "0x00000000000000000000000000000000000000000000000000000000000000000000000000000000000000000000000000000000000000000000000000000000000000000000000000000000000000000000000000000000000000000000000000000000000000000000000000000000000000000000000000000000000000000000000000000000000000000000000000000000000000000000000000000000000000000000000000000000000000000000000000000000000000000000000000000000000000000000000000000000000000000000000000000000000000000000000000000000000000000000000000000000000000000000000000000000",
      "type": "0x2",
      "transactionHash": "0x32610e17b9fd4fcc3fc89d1406e81122e9c964d8028e003de54125a4885ff677",
      "transactionIndex": "0xa",
      "blockHash": "0x0000000000000000000000000000000000000000000000000000000000000000",
      "blockNumber": "0x24a2ded",
      "gasUsed": "0x174cc",
      "effectiveGasPrice": "0x5b8d80",
      "blobGasUsed": "0x364c",
      "from": "0xf471539c814e59323cce676435067470565e38fa",
      "to": "0xa3f7914cf830a7d1888ef67796f58289d2158ecd",
      "contractAddress": null,
      "daFootprintGasScalar": "0x8b",
      "l1BaseFeeScalar": "0x44d",
      "l1BlobBaseFee": "0x1",
      "l1BlobBaseFeeScalar": "0xa118b",
      "l1Fee": "0x7e",
      "l1GasPrice": "0xa",
      "l1GasUsed": "0x640"
    },
    {
      "status": "0x1",
      "cumulativeGasUsed": "0x138e41",
      "logs": [],
      "logsBloom": "0x00000000000000000000000000000000000000000000000000000000000000000000000000000000000000000000000000000000000000000000000000000000000000000000000000000000000000000000000000000000000000000000000000000000000000000000000000000000000000000000000000000000000000000000000000000000000000000000000000000000000000000000000000000000000000000000000000000000000000000000000000000000000000000000000000000000000000000000000000000000000000000000000000000000000000000000000000000000000000000000000000000000000000000000000000000000",
      "type": "0x2",
      "transactionHash": "0x6365d468c4bead9d8860d9d1111679ab6e2f5cd76c7b53f615cf26e1102f8dbd",
      "transactionIndex": "0xb",
      "blockHash": "0x0000000000000000000000000000000000000000000000000000000000000000",
      "blockNumber": "0x24a2ded",
      "gasUsed": "0x174cc",
      "effectiveGasPrice": "0x5b8d80",
      "blobGasUsed": "0x364c",
      "from": "0xf471539c814e59323cce676435067470565e38fa",
      "to": "0xa3f7914cf830a7d1888ef67796f58289d2158ecd",
      "contractAddress": null,
      "daFootprintGasScalar": "0x8b",
      "l1BaseFeeScalar": "0x44d",
      "l1BlobBaseFee": "0x1",
      "l1BlobBaseFeeScalar": "0xa118b",
      "l1Fee": "0x7e",
      "l1GasPrice": "0xa",
      "l1GasUsed": "0x640"
    },
    {
      "status": "0x1",
      "cumulativeGasUsed": "0x171613",
      "logs": [],
      "logsBloom": "0x00000000000000000000000000000000000000000000000000000000000000000000000000000000000000000000000000000000000000000000000000000000000000000000000000000000000000000000000000000000000000000000000000000000000000000000000000000000000000000000000000000000000000000000000000000000000000000000000000000000000000000000000000000000000000000000000000000000000000000000000000000000000000000000000000000000000000000000000000000000000000000000000000000000000000000000000000000000000000000000000000000000000000000000000000000000",
      "type": "0x2",
      "transactionHash": "0x2410b38bbdc28352357039ee2961e4e3b0593634866139b4916534d28c5f6cd6",
      "transactionIndex": "0xc",
      "blockHash": "0x0000000000000000000000000000000000000000000000000000000000000000",
      "blockNumber": "0x24a2ded",
      "gasUsed": "0x387d2",
      "effectiveGasPrice": "0x5b8d80",
      "blobGasUsed": "0x4012",
      "from": "0xf471539c814e59323cce676435067470565e38fa",
      "to": "0xa3f7914cf830a7d1888ef67796f58289d2158ecd",
      "contractAddress": null,
      "daFootprintGasScalar": "0x8b",
      "l1BaseFeeScalar": "0x44d",
      "l1BlobBaseFee": "0x1",
      "l1BlobBaseFeeScalar": "0xa118b",
      "l1Fee": "0x7e",
      "l1GasPrice": "0xa",
      "l1GasUsed": "0x76d"
    },
    {
      "status": "0x1",
      "cumulativeGasUsed": "0x1a9de5",
      "logs": [],
      "logsBloom": "0x00000000000000000000000000000000000000000000000000000000000000000000000000000000000000000000000000000000000000000000000000000000000000000000000000000000000000000000000000000000000000000000000000000000000000000000000000000000000000000000000000000000000000000000000000000000000000000000000000000000000000000000000000000000000000000000000000000000000000000000000000000000000000000000000000000000000000000000000000000000000000000000000000000000000000000000000000000000000000000000000000000000000000000000000000000000",
      "type": "0x2",
      "transactionHash": "0x5a52d86c0b4ede14ed3cc87b4a353b2ca34b3931ba4f8bb2424b82b6d1d2e992",
      "transactionIndex": "0xd",
      "blockHash": "0x0000000000000000000000000000000000000000000000000000000000000000",
      "blockNumber": "0x24a2ded",
      "gasUsed": "0x387d2",
      "effectiveGasPrice": "0x5b8d80",
      "blobGasUsed": "0x4012",
      "from": "0xf471539c814e59323cce676435067470565e38fa",
      "to": "0xa3f7914cf830a7d1888ef67796f58289d2158ecd",
      "contractAddress": null,
      "daFootprintGasScalar": "0x8b",
      "l1BaseFeeScalar": "0x44d",
      "l1BlobBaseFee": "0x1",
      "l1BlobBaseFeeScalar": "0xa118b",
      "l1Fee": "0x7e",
      "l1GasPrice": "0xa",
      "l1GasUsed": "0x76d"
    },
    {
      "status": "0x1",
      "cumulativeGasUsed": "0x269e70",
      "logs": [],
      "logsBloom": "0x00000000000000000000000000000000000000000000000000000000000000000000000000000000000000000000000000000000000000000000000000000000000000000000000000000000000000000000000000000000000000000000000000000000000000000000000000000000000000000000000000000000000000000000000000000000000000000000000000000000000000000000000000000000000000000000000000000000000000000000000000000000000000000000000000000000000000000000000000000000000000000000000000000000000000000000000000000000000000000000000000000000000000000000000000000000",
      "type": "0x2",
      "transactionHash": "0xd3b3b555cc3be18d794e1225945cbd9b2fedd7772e81a7f777d911a21fca3086",
      "transactionIndex": "0x11",
      "blockHash": "0x0000000000000000000000000000000000000000000000000000000000000000",
      "blockNumber": "0x24a2ded",
      "gasUsed": "0x1df15",
      "effectiveGasPrice": "0x5b8d80",
      "blobGasUsed": "0x364c",
      "from": "0xf471539c814e59323cce676435067470565e38fa",
      "to": "0xa3f7914cf830a7d1888ef67796f58289d2158ecd",
      "contractAddress": null,
      "daFootprintGasScalar": "0x8b",
      "l1BaseFeeScalar": "0x44d",
      "l1BlobBaseFee": "0x1",
      "l1BlobBaseFeeScalar": "0xa118b",
      "l1Fee": "0x53",
      "l1GasPrice": "0xa",
      "l1GasUsed": "0x640"
    },
    {
      "status": "0x1",
      "cumulativeGasUsed": "0x28cb4d",
      "logs": [],
      "logsBloom": "0x00000000000000000000000000000000000000000000000000000000000000000000000000000000000000000000000000000000000000000000000000000000000000000000000000000000000000000000000000000000000000000000000000000000000000000000000000000000000000000000000000000000000000000000000000000000000000000000000000000000000000000000000000000000000000000000000000000000000000000000000000000000000000000000000000000000000000000000000000000000000000000000000000000000000000000000000000000000000000000000000000000000000000000000000000000000",
      "type": "0x2",
      "transactionHash": "0x384df5171fb11d8cbe071f46ef6ba2dda473b52a4790933e34533803d08f7fad",
      "transactionIndex": "0x12",
      "blockHash": "0x0000000000000000000000000000000000000000000000000000000000000000",
      "blockNumber": "0x24a2ded",
      "gasUsed": "0x22cdd",
      "effectiveGasPrice": "0x5b8d80",
      "blobGasUsed": "0x364c",
      "from": "0xf471539c814e59323cce676435067470565e38fa",
      "to": "0xa3f7914cf830a7d1888ef67796f58289d2158ecd",
      "contractAddress": null,
      "daFootprintGasScalar": "0x8b",
      "l1BaseFeeScalar": "0x44d",
      "l1BlobBaseFee": "0x1",
      "l1BlobBaseFeeScalar": "0xa118b",
      "l1Fee": "0x53",
      "l1GasPrice": "0xa",
      "l1GasUsed": "0x640"
    }
  ],
  "libraries": [],
  "pending": [],
  "returns": {},
  "timestamp": 1772599993,
  "chain": 84532,
  "commit": "e213882"
}